S01800005461736B5F315F4C45445F547261696E2E7372656358
S11300000C942A000C9434000C9434000C943400A6
S11300100C9434000C9434000C9434000C9434008C
S11300200C9434000C9434000C9434000C9434007C
S11300300C9434000C9434000C9434000C9434006C
S11300400C9434000C9434000C9434000C9434005C
S11300500C94340011241FBECFE5D8E0DEBFCDBF21
S11300600E9439000C9478000C9400008FEF87BB39
S113007008950E94360020E015C038B381E090E076
S1130080022E02C0880F991F0A94E2F7832B88BBC3
S11300903FEF81EE94E0315080409040E1F700C0A2
S11300A000002F5F28304CF327E016C038B381E0FE
S11300B090E0022E02C0880F991F0A94E2F78095FF
S11300C0832388BB3FEF81EE94E031508040904021
S11300D0E1F700C000002150222344F72FEF34E35E
S11300E08CE0215030408040E1F700C00000C3CFD5
S10700F0F894FFCFAE
S9030000FC
