:100000000C942A000C9434000C9434000C943400AA
:100010000C9434000C9434000C9434000C94340090
:100020000C9434000C9434000C9434000C94340080
:100030000C9434000C9434000C9434000C94340070
:100040000C9434000C9434000C9434000C94340060
:100050000C94340011241FBECFE5D8E0DEBFCDBF25
:100060000E943B000C946C000C9400008FEF84BB4A
:1000700088EF81BB08950E94360087E0809B22C0F4
:100080008430E0F092B321E030E0082E02C0220F6D
:10009000331F0A94E2F7922B92BB843069F44FE746
:1000A0005BE898E0415050409040E1F700C000000C
:1000B00092B32095292322BB815002C012BA87E057
:1000C0008099FECF2FEF30E742E021503040404092
:0C00D000E1F700C00000D2CFF894FFCF91
:00000001FF
