:100000000C942A000C943F000C943F000C943F0089
:100010000C943F000C943F000C943F000C943F0064
:100020000C943F000C943F000C943F000C943F0054
:100030000C943F000C943F000C943F000C943F0044
:100040000C943F000C943F000C943F000C943F0034
:100050000C943F0011241FBECFE5D8E0DEBFCDBF1A
:1000600010E0A0E6B0E0E8E0F5E002C005900D92F7
:10007000AE37B107D9F70E946F020C9482020C943C
:100080000000843008F072C0683008F06FC0423061
:1000900008F06CC0813001F130F08230B1F1833072
:1000A00009F44CC00895413059F42AB381E090E03E
:1000B00002C0880F991F6A95E2F7822B8ABB0895C8
:1000C0002AB381E090E002C0880F991F6A95E2F799
:1000D000809582238ABB0895413059F427B381E08B
:1000E00090E002C0880F991F6A95E2F7822B87BBC8
:1000F000089527B381E090E002C0880F991F6A95A8
:10010000E2F78095822387BB0895413059F424B3E8
:1001100081E090E002C0880F991F6A95E2F7822B78
:1001200084BB089524B381E090E002C0880F991F3A
:100130006A95E2F78095822384BB0895413059F493
:1001400021B381E090E002C0880F991F6A95E2F721
:10015000822B81BB089521B381E090E002C0880F1B
:10016000991F6A95E2F78095822381BB08958430B8
:1001700008F072C0683008F06FC0423008F06CC000
:10018000813001F130F08230B1F1833009F44CC09C
:100190000895413059F42BB381E090E002C0880FFC
:1001A000991F6A95E2F7822B8BBB08952BB381E0F0
:1001B00090E002C0880F991F6A95E2F7809582232C
:1001C0008BBB0895413059F428B381E090E002C020
:1001D000880F991F6A95E2F7822B88BB089528B390
:1001E00081E090E002C0880F991F6A95E2F7809540
:1001F000822388BB0895413059F425B381E090E013
:1002000002C0880F991F6A95E2F7822B85BB08957B
:1002100025B381E090E002C0880F991F6A95E2F74C
:100220008095822385BB0895413059F422B381E043
:1002300090E002C0880F991F6A95E2F7822B82BB7B
:10024000089522B381E090E002C0880F991F6A955B
:10025000E2F78095822382BB0895CF93C82F80FF59
:1002600006C041E064E080E00E94B70005C040E0C5
:1002700064E080E00E94B700C1FF06C041E065E095
:1002800080E00E94B70005C040E065E080E00E9489
:10029000B700C2FF06C041E066E080E00E94B70000
:1002A00005C040E066E080E00E94B700C3FF06C0E2
:1002B00041E067E080E00E94B70005C040E067E0F1
:1002C00080E00E94B700CF91089541E064E080E0B3
:1002D0000E94410041E065E080E00E94410041E071
:1002E00066E080E00E94410041E067E080E00E941B
:1002F000410041E061E081E00E94410041E062E0B4
:1003000081E00E94410041E063E081E00E94410001
:100310000895CF93C82F40E061E081E00E94B700CC
:1003200040E062E081E00E94B7008C2F82958F70E0
:100330000E942D0141E063E081E00E94B7008FEC54
:1003400097E00197F1F700C0000040E063E081E032
:100350000E94B7008C2F0E942D0141E063E081E0F4
:100360000E94B7008FEC97E00197F1F700C0000002
:1003700040E063E081E00E94B700CF9108952FEB49
:100380008AED90E0215080409040E1F700C00000ED
:1003900040E061E081E00E94B70040E062E081E07F
:1003A0000E94B70082E00E942D0141E063E081E0FD
:1003B0000E94B7008FEC97E00197F1F700C00000B2
:1003C00040E063E081E00E94B70088E20E9489017A
:1003D00098E79A95F1F78FE00E94890128E72A951E
:1003E000F1F781E00E9489018FE99FE00197F1F721
:1003F00000C0000086E00E9489010895CF93C82FB5
:1004000041E061E081E00E94B70040E062E081E00D
:100410000E94B7008C2F82958F700E942D0141E0C1
:1004200063E081E00E94B7008FEC97E00197F1F75D
:1004300000C0000040E063E081E00E94B7008C2F24
:100440000E942D0141E063E081E00E94B7008FEC43
:1004500097E00197F1F700C0000040E063E081E021
:100460000E94B700CF9108950F931F93CF930097E9
:1004700071F415C00E94FE012FE386E991E021503E
:1004800080409040E1F700C00000CF5F02C08C01C7
:10049000C0E0F801EC0FF11D80818111EBCFCF910D
:1004A0001F910F91089581E00E9489018FE99FE0DB
:1004B0000197F1F700C000000895813039F46031F0
:1004C00068F480E8860F0E9489010895823031F433
:1004D000603120F480EC860F0E94890108950E940B
:1004E00065010E94BF010E94530280E690E00E94D5
:1004F000340260E082E00E945D028FE690E00E949C
:080500003402FFCFF894FFCF95
:100508004C6561726E20496E204465707468007E87
:0E0518004D6F68616D6564204E6162696C0014
:00000001FF
