:100000000C942A000C943F000C943F000C943F0089
:100010000C943F000C943F000C943F000C943F0064
:100020000C943F000C943F000C943F000C943F0054
:100030000C943F000C943F000C943F000C943F0044
:100040000C943F000C943F000C943F000C943F0034
:100050000C943F0011241FBECFE5D8E0DEBFCDBF1A
:1000600010E0A0E6B0E0E6E3F9E002C005900D92F2
:10007000A83AB107D9F70E94AF020C9499040C94E6
:100080000000843008F072C0683008F06FC0423061
:1000900008F06CC0813001F130F08230B1F1833072
:1000A00009F44CC00895413059F42AB381E090E03E
:1000B00002C0880F991F6A95E2F7822B8ABB0895C8
:1000C0002AB381E090E002C0880F991F6A95E2F799
:1000D000809582238ABB0895413059F427B381E08B
:1000E00090E002C0880F991F6A95E2F7822B87BBC8
:1000F000089527B381E090E002C0880F991F6A95A8
:10010000E2F78095822387BB0895413059F424B3E8
:1001100081E090E002C0880F991F6A95E2F7822B78
:1001200084BB089524B381E090E002C0880F991F3A
:100130006A95E2F78095822384BB0895413059F493
:1001400021B381E090E002C0880F991F6A95E2F721
:10015000822B81BB089521B381E090E002C0880F1B
:10016000991F6A95E2F78095822381BB08958430B8
:1001700008F072C0683008F06FC0423008F06CC000
:10018000813001F130F08230B1F1833009F44CC09C
:100190000895413059F42BB381E090E002C0880FFC
:1001A000991F6A95E2F7822B8BBB08952BB381E0F0
:1001B00090E002C0880F991F6A95E2F7809582232C
:1001C0008BBB0895413059F428B381E090E002C020
:1001D000880F991F6A95E2F7822B88BB089528B390
:1001E00081E090E002C0880F991F6A95E2F7809540
:1001F000822388BB0895413059F425B381E090E013
:1002000002C0880F991F6A95E2F7822B85BB08957B
:1002100025B381E090E002C0880F991F6A95E2F74C
:100220008095822385BB0895413059F422B381E043
:1002300090E002C0880F991F6A95E2F7822B82BB7B
:10024000089522B381E090E002C0880F991F6A955B
:10025000E2F78095822382BB0895843008F04EC077
:10026000683008F04BC04115510509F447C0813092
:10027000B1F028F0823019F1833089F1089589B303
:1002800090E002C0959587956A95E2F780FF04C0DB
:1002900081E0FA0180830895FA011082089586B3FF
:1002A00090E002C0959587956A95E2F780FF04C0BB
:1002B00081E0FA0180830895FA011082089583B3E2
:1002C00090E002C0959587956A95E2F780FF04C09B
:1002D00081E0FA0180830895FA011082089580B3C5
:1002E00090E002C0959587956A95E2F780FF04C07B
:1002F00081E0FA0180830895FA0110820895CF9376
:10030000C82F80FF06C041E064E080E00E94B70093
:1003100005C040E064E080E00E94B700C1FF06C075
:1003200041E065E080E00E94B70005C040E065E084
:1003300080E00E94B700C2FF06C041E066E080E0B6
:100340000E94B70005C040E066E080E00E94B70070
:10035000C3FF06C041E067E080E00E94B70005C02F
:1003600040E067E080E00E94B700CF910895CF930E
:10037000C82F40E061E081E00E94B70040E062E009
:1003800081E00E94B7008C2F82958F700E947F01C0
:1003900041E063E081E00E94B7008FE99FE00197B0
:1003A000F1F700C0000040E063E081E00E94B70088
:1003B0008C2F0E947F0141E063E081E00E94B70042
:1003C0008FE99FE00197F1F700C0000040E063E093
:1003D00081E00E94B700CF9108952FE785EB91E06F
:1003E000215080409040E1F700C0000040E061E013
:1003F00081E00E94B70040E062E081E00E94B70027
:1004000082E00E947F0141E063E081E00E94B7004A
:100410008FE99FE00197F1F700C0000040E063E042
:1004200081E00E94B70088E20E94B70190EF9A95A0
:10043000F1F78DE00E94B70120EF2A95F1F781E0F6
:100440000E94B7018FE39FE10197F1F700C0000020
:1004500086E00E94B7010895CF93C82F41E061E084
:1004600081E00E94B70040E062E081E00E94B700B6
:100470008C2F82958F700E947F0141E063E081E0C4
:100480000E94B7008FE99FE00197F1F700C00000DC
:1004900040E063E081E00E94B7008C2F0E947F0162
:1004A00041E063E081E00E94B7008FE99FE001979F
:1004B000F1F700C0000040E063E081E00E94B70077
:1004C000CF9108950F931F93CF93009729F40CC0F9
:1004D0000E942C02CF5F02C08C01C0E0F801EC0F3B
:1004E000F11D80818111F4CFCF911F910F9108955B
:1004F00081E00E94B7018FE39FE10197F1F700C00F
:1005000000000895813039F4603168F480E8860F86
:100510000E94B7010895823031F4603120F480ECFC
:10052000860F0E94B7010895CF93DF9380E40E9465
:10053000B701C0E0D0E007C0FE01E05AFF4F808164
:100540000E942C022196C830D105B4F381E00E94AC
:10055000B70180E00E942C02DF91CF910895CF93E4
:10056000DF931F92CDB7DEB741E064E080E00E94E8
:10057000410041E065E080E00E94410041E066E02A
:1005800080E00E94410041E067E080E00E9441007D
:1005900041E061E081E00E94410041E062E081E0F1
:1005A0000E94410041E063E081E00E94410040E0A0
:1005B00060E081E00E94410040E066E083E00E944C
:1005C000410040E062E083E00E94410041E063E0DE
:1005D00080E00E94410041E062E082E00E94410030
:1005E00041E067E082E00E94410041E063E083E097
:1005F0000E9441000E94ED0164E081E00E948202BD
:1006000088E690E00E94620260E082E00E9482023E
:1006100081E790E00E9462026FE082E00E94820225
:1006200083E790E00E9462022FEF83ED90E3215078
:1006300080409040E1F700C0000041E063E080E0CE
:100640000E94B70064E082E00E94820285E790E0A9
:100650000E9462022FEF83ED90E321508040904092
:10066000E1F700C0000040E063E080E00E94B700D6
:100670009E012F5F3F4F41E060E081E00E946004F7
:100680008981813009F012C141E063E080E00E947D
:10069000B70041E062E082E00E94B70041E067E01D
:1006A00082E00E94B70041E063E083E00E94B7006F
:1006B00064E082E00E9482028DE890E00E94620283
:1006C00065E082E00E9482028EE790E00E94620272
:1006D0002FEF83ED90E3215080409040E1F700C080
:1006E000000040E062E082E00E94B70040E067E086
:1006F00082E00E94B70040E063E083E00E94B70020
:1007000040E063E080E00E94B70060E082E00E9489
:10071000820285E890E00E94620260E082E00E942E
:10072000820281E790E00E9462026FE082E00E9414
:10073000820283E790E00E94620202E010E038C08B
:100740006FEF600F82E00E94820284E990E00E94D5
:10075000620241E063E080E00E94B70041E067E0B0
:1007600082E00E94B700602F82E00E94820285EA48
:100770000E942C022FEF83EC99E0215080409040A2
:10078000E1F700C0000040E067E082E00E94B700AF
:1007900040E063E080E00E94B7002FEF89E698E137
:1007A000215080409040E1F700C000000F5F1F4FD4
:1007B000003111052CF241E063E080E00E94B700B7
:1007C00041E062E082E00E94B70041E067E082E041
:1007D0000E94B70041E063E083E00E94B7006FE051
:1007E00082E00E9482028FE60E942C022FEF8DE2AF
:1007F00092E2215080409040E1F700C000006FE09D
:1008000082E00E9482028FE40E942C022FEF8DE290
:1008100092E2215080409040E1F700C000006FE07C
:1008200082E00E94820284E990E00E9462022FEF3F
:100830008DE399E4215080409040E1F700C0000032
:1008400040E062E082E00E94B70040E067E082E0C2
:100850000E94B70040E063E083E00E94B70040E000
:1008600063E080E00E94B7000E94780260E081E0CF
:100870000E94820286E990E00E9462022FEF8BE7DD
:1008800092E9215080409040E1F700C000000E94B2
:1008900078020E9494020E9494022FEF87EA91E668
:1008A000215080409040E1F700C000002FEF89E622
:1008B00098E1215080409040E1F700C000009CCEBC
:1008C000EF92FF921F93CF93DF931F92CDB7DEB7C6
:1008D000843040F5683030F52115310519F142308A
:1008E00008F57901142FAE014F5F5F4F0E942D0173
:1008F000113059F48981813019F4F701808312C0D5
:10090000811110C0F70110820DC011110BC0898137
:10091000813019F4F701108205C0811103C081E014
:10092000F70180830F90DF91CF911F91FF90EF909F
:060930000895F894FFCFCA
:100936000A0A0A0011110E004C4556454C2031207A
:10094600003E00490050524553532042300046496C
:100956005245202100202020202020202020202059
:100966002020202020005741495420464F52204C39
:080976004556454C20320000FB
:00000001FF
