:100000000C942A000C943C000C943C000C943C0092
:100010000C943C000C943C000C943C000C943C0070
:100020000C943C000C943C000C9401020C94C20112
:100030000C943C000C943C000C943C000C943C0050
:100040000C943C000C943C000C943C000C943C0040
:100050000C943C0011241FBECFE5D8E0DEBFCDBF1D
:1000600020E0A0E6B0E001C01D92A636B207E1F79D
:100070000E949F010C943A020C94000041E064E05D
:1000800083E00E94B30041E065E083E00E94B3009A
:1000900041E063E082E00E94B30041E064E082E07E
:1000A0000E94B30041E065E082E00E94B30041E0BD
:1000B00066E082E00E94B3000895CF93C62F81309E
:1000C00019F0823001F13DC041E064E083E00E941C
:1000D0002901C13059F441E063E082E00E94290126
:1000E00040E064E082E00E9429012BC0C23049F563
:1000F00040E063E082E00E94290141E064E082E0A8
:100100000E9429011EC041E065E083E00E942901B0
:10011000C13059F441E065E082E00E94290140E0ED
:1001200066E082E00E9429010CC0C23051F440E038
:1001300065E082E00E94290141E066E082E00E94E1
:100140002901CF910895CF93C82F41E063E081E06A
:100150000E94B3000E94A9010E94B6018C2F0E9448
:10016000C001CF910895843008F072C0683008F063
:100170006FC0423008F06CC0813001F130F0823045
:10018000B1F1833009F44CC00895413059F42AB3D9
:1001900081E090E002C0880F991F6A95E2F7822BF8
:1001A0008ABB08952AB381E090E002C0880F991FAE
:1001B0006A95E2F7809582238ABB0895413059F40D
:1001C00027B381E090E002C0880F991F6A95E2F79B
:1001D000822B87BB089527B381E090E002C0880F8F
:1001E000991F6A95E2F78095822387BB0895413075
:1001F00059F424B381E090E002C0880F991F6A95FA
:10020000E2F7822B84BB089524B381E090E002C022
:10021000880F991F6A95E2F78095822384BB089521
:10022000413059F421B381E090E002C0880F991F5A
:100230006A95E2F7822B81BB089521B381E090E0BB
:1002400002C0880F991F6A95E2F78095822381BBCF
:100250000895843008F072C0683008F06FC04230F2
:1002600008F06CC0813001F130F08230B1F18330A0
:1002700009F44CC00895413059F42BB381E090E06B
:1002800002C0880F991F6A95E2F7822B8BBB0895F5
:100290002BB381E090E002C0880F991F6A95E2F7C6
:1002A000809582238BBB0895413059F428B381E0B7
:1002B00090E002C0880F991F6A95E2F7822B88BBF5
:1002C000089528B381E090E002C0880F991F6A95D5
:1002D000E2F78095822388BB0895413059F425B315
:1002E00081E090E002C0880F991F6A95E2F7822BA7
:1002F00085BB089525B381E090E002C0880F991F67
:100300006A95E2F78095822385BB0895413059F4C0
:1003100022B381E090E002C0880F991F6A95E2F74E
:10032000822B82BB089522B381E090E002C0880F47
:10033000991F6A95E2F78095822382BB08950E94F7
:100340003E0061E081E00E945D008FEF0E94A3000B
:10035000FFCF83B7806483BF83B7886083BF83B7D1
:100360008F7E83BF83B7806283BF089583B7816028
:1003700083BF83B7826083BF83B78B7F83BF0895BA
:100380008CBF08951F920F920FB60F9211242F93D6
:100390003F934F935F936F937F938F939F93AF930D
:1003A000BF93EF93FF938091620090916300019659
:1003B000909363008093620086E082BF8091620028
:1003C00090916300853C934059F410926300109221
:1003D0006200E0916400F0916500309709F00995A2
:1003E000FF91EF91BF91AF919F918F917F916F910D
:1003F0005F914F913F912F910F900FBE0F901F90E3
:1004000018951F920F920FB60F9211242F933F93BE
:100410004F935F936F937F938F939F93AF93BF930C
:10042000EF93FF938091600090916100019690930B
:10043000610080936000853C934059F41092610004
:1004400010926000E0916400F0916500309709F02F
:100450000995FF91EF91BF91AF919F918F917F91FE
:100460006F915F914F913F912F910F900FBE0F9021
:080470001F901895F894FFCFCE
:00000001FF
