:100000000C942A000C9447000C9447000C94470071
:100010000C9447000C9447000C9447000C94470044
:100020000C9447000C9447000C949E030C945803C6
:100030000C9447000C9447000C9447000C94470024
:100040000C9447000C9447000C9447000C94470014
:100050000C94470011241FBECFE5D8E0DEBFCDBF12
:1000600010E0A0E6B0E0E6EFF7E002C005900D92E8
:10007000A636B107D9F720E0A6E6B0E001C01D9290
:10008000AF36B207E1F70E9433030C94F9030C94E6
:100090000000843008F072C0683008F06FC0423051
:1000A00008F06CC0813001F130F08230B1F1833062
:1000B00009F44CC00895413059F42AB381E090E02E
:1000C00002C0880F991F6A95E2F7822B8ABB0895B8
:1000D0002AB381E090E002C0880F991F6A95E2F789
:1000E000809582238ABB0895413059F427B381E07B
:1000F00090E002C0880F991F6A95E2F7822B87BBB8
:10010000089527B381E090E002C0880F991F6A9597
:10011000E2F78095822387BB0895413059F424B3D8
:1001200081E090E002C0880F991F6A95E2F7822B68
:1001300084BB089524B381E090E002C0880F991F2A
:100140006A95E2F78095822384BB0895413059F483
:1001500021B381E090E002C0880F991F6A95E2F711
:10016000822B81BB089521B381E090E002C0880F0B
:10017000991F6A95E2F78095822381BB08958430A8
:1001800008F072C0683008F06FC0423008F06CC0F0
:10019000813001F130F08230B1F1833009F44CC08C
:1001A0000895413059F42BB381E090E002C0880FEC
:1001B000991F6A95E2F7822B8BBB08952BB381E0E0
:1001C00090E002C0880F991F6A95E2F7809582231C
:1001D0008BBB0895413059F428B381E090E002C010
:1001E000880F991F6A95E2F7822B88BB089528B380
:1001F00081E090E002C0880F991F6A95E2F7809530
:10020000822388BB0895413059F425B381E090E002
:1002100002C0880F991F6A95E2F7822B85BB08956B
:1002200025B381E090E002C0880F991F6A95E2F73C
:100230008095822385BB0895413059F422B381E033
:1002400090E002C0880F991F6A95E2F7822B82BB6B
:10025000089522B381E090E002C0880F991F6A954B
:10026000E2F78095822382BB08958FB780688FBFA5
:100270000895CF93C82F80FF06C041E064E080E07E
:100280000E94BF0005C040E064E080E00E94BF0023
:10029000C1FF06C041E065E080E00E94BF0005C0EC
:1002A00040E065E080E00E94BF00C2FF06C041E080
:1002B00066E080E00E94BF0005C040E066E080E0AC
:1002C0000E94BF00C3FF06C041E067E080E00E94DB
:1002D000BF0005C040E067E080E00E94BF00CF9112
:1002E0000895CF93C82F40E061E081E00E94BF00F5
:1002F00040E062E081E00E94BF008C2F82958F7009
:100300000E94390141E063E081E00E94BF008FE973
:100310009FE00197F1F700C0000040E063E081E05A
:100320000E94BF008C2F0E94390141E063E081E010
:100330000E94BF008FE99FE00197F1F700C0000025
:1003400040E063E081E00E94BF00CF9108952FE775
:1003500085EB91E0215080409040E1F700C0000023
:1003600040E061E081E00E94BF0040E062E081E0A7
:100370000E94BF0082E00E94390141E063E081E019
:100380000E94BF008FE99FE00197F1F700C00000D5
:1003900040E063E081E00E94BF0088E20E947101BA
:1003A00090EF9A95F1F78CE00E94710120EF2A9569
:1003B000F1F781E00E9471018FE39FE10197F1F76E
:1003C00000C0000086E00E9471018FE39FE1019769
:1003D000F1F700C000000895CF93C82F41E061E01D
:1003E00081E00E94BF0040E062E081E00E94BF0027
:1003F0008C2F82958F700E94390141E063E081E08B
:100400000E94BF008FE99FE00197F1F700C0000054
:1004100040E063E081E00E94BF008C2F0E94390120
:1004200041E063E081E00E94BF008FE99FE0019717
:10043000F1F700C0000040E063E081E00E94BF00EF
:10044000CF9108950F931F93CF93009729F40CC079
:100450000E94EC01CF5F02C08C01C0E0F801EC0FFC
:10046000F11D80818111F4CFCF911F910F910895DB
:1004700041E064E080E00E94490041E065E080E006
:100480000E94490041E066E080E00E94490041E0AE
:1004900067E080E00E94490041E061E081E00E9465
:1004A000490041E062E081E00E94490041E063E0F0
:1004B00081E00E944900089581E00E9471018FE36C
:1004C0009FE10197F1F700C000000895813039F4F1
:1004D000803168F480E8860F0E94710108958230AF
:1004E00031F4603120F480EC860F0E947101089590
:1004F000CF92DF92EF92FF920F931F938B019C019B
:10050000672B682B692B49F580E30E94EC0145C0FD
:10051000DC01CB01880F991FAA1FBB1F6C017D0155
:10052000CC0CDD1CEE1CFF1CCC0CDD1CEE1CFF1CDF
:10053000C80ED91EEA1EFB1EC901B8012AE030E030
:1005400040E050E00E94D7036C0D7D1D8E1D9F1D65
:10055000022F132F242F352F04C061E070E080E0BC
:1005600090E0011511052105310591F62AE030E0F2
:1005700040E050E00E94D703E22EF32E042F152F07
:1005800080E3860F0E94EC016E2D7F2D802F912F2E
:10059000613071058105910549F71F910F91FF9019
:1005A000EF90DF90CF9008950E945C0280916800E8
:1005B0008F5F809368008C3339F4109268008091CB
:1005C00067008F5F80936700809167008C3339F4F8
:1005D00010926700809166008F5F8093660080E6CE
:1005E00090E00E94220264E082E00E946602809114
:1005F00066008A3020F465E082E00E946602609125
:10060000660070E080E090E00E94780266E082E0A0
:100610000E9466028AE30E94EC01809167008A30A2
:1006200020F468E082E00E9466026091670070E05A
:1006300080E090E00E94780269E082E00E94660219
:100640008AE30E94EC01809168008A3020F46BE01C
:1006500082E00E9466026091680070E080E090E0B5
:100660000E947802089584ED92E00E9497030E9410
:10067000350189EF0E9456030E9443030E9438020D
:100680000E94A701FFCF83B78F7B83BF83B78860AA
:1006900083BF89B7826089BF83B7816083BF83B717
:1006A000826083BF83B78B7F83BF08958CBF08951B
:1006B0001F920F920FB60F9211242F933F934F93D7
:1006C0005F936F937F938F939F93AF93BF93EF93BA
:1006D000FF9380916B0090916C00019690936C0059
:1006E00080936B0086E082BF80916B0090916C00DC
:1006F000853C934059F410926C0010926B00E0918D
:100700006D00F0916E00309709F00995FF91EF911F
:10071000BF91AF919F918F917F916F915F914F9119
:100720003F912F910F900FBE0F901F90189500973B
:1007300021F090936E0080936D0008951F920F92A8
:100740000FB60F9211242F933F934F935F936F93A4
:100750007F938F939F93AF93BF93EF93FF9380917A
:10076000690090916A00019690936A0080936900F5
:10077000853C934059F410926A0010926900E09110
:100780006D00F0916E00309709F00995FF91EF919F
:10079000BF91AF919F918F917F916F915F914F9199
:1007A0003F912F910F900FBE0F901F901895A1E2CF
:1007B0001A2EAA1BBB1BFD010DC0AA1FBB1FEE1FDB
:1007C000FF1FA217B307E407F50720F0A21BB30B26
:1007D000E40BF50B661F771F881F991F1A9469F7A2
:1007E00060957095809590959B01AC01BD01CF01FE
:0607F0000895F894FFCF0C
:0607F60054696D653A0034
:00000001FF
