:100000000C942A000C9436000C9452000C946E0050
:100010000C9434000C9434000C9434000C94340090
:100020000C9434000C9434000C9434000C94340080
:100030000C9434000C9434000C9434000C94340070
:100040000C9434000C9434000C9434000C94340060
:100050000C94340011241FBECFE5D8E0DEBFCDBF25
:100060000E94A2000C94AA000C9400001F920F9210
:100070000FB60F9211242F938F939F9382B38062B8
:1000800082BB2FEF89E698E1215080409040E1F754
:1000900000C000009F918F912F910F900FBE0F9085
:1000A0001F9018951F920F920FB60F9211242F9345
:1000B0008F939F9382B3806482BB2FEF89E698E190
:1000C000215080409040E1F700C000009F918F9147
:1000D0002F910F900FBE0F901F9018951F920F92A7
:1000E0000FB60F9211242F938F939F9382B3806842
:1000F00082BB2FEF89E698E1215080409040E1F7E4
:1001000000C000009F918F912F910F900FBE0F9014
:100110001F90189578948BB7806E8BBF85B78160E0
:1001200085BF85B78C6085BF84B78F7B84BF0895FA
:1001300087B38B7F87BB81B3837F81BB81B3806EA5
:1001400081BB08950E948A000E94980082B38F713B
:0801500082BBFCCFF894FFCF45
:00000001FF
