:100000000C942A000C943F000C943F000C943F0089
:100010000C943F000C943F000C943F000C943F0064
:100020000C943F000C943F000C943F000C943F0054
:100030000C943F000C943F000C943F000C943F0044
:100040000C943F000C943F000C943F000C943F0034
:100050000C943F0011241FBECFE5D8E0DEBFCDBF1A
:1000600010E0A0E6B0E0ECE6F7E002C005900D92EB
:10007000A037B107D9F70E9469030C94B4030C941C
:100080000000843008F072C0683008F06FC0423061
:1000900008F06CC0813001F130F08230B1F1833072
:1000A00009F44CC00895413059F42AB381E090E03E
:1000B00002C0880F991F6A95E2F7822B8ABB0895C8
:1000C0002AB381E090E002C0880F991F6A95E2F799
:1000D000809582238ABB0895413059F427B381E08B
:1000E00090E002C0880F991F6A95E2F7822B87BBC8
:1000F000089527B381E090E002C0880F991F6A95A8
:10010000E2F78095822387BB0895413059F424B3E8
:1001100081E090E002C0880F991F6A95E2F7822B78
:1001200084BB089524B381E090E002C0880F991F3A
:100130006A95E2F78095822384BB0895413059F493
:1001400021B381E090E002C0880F991F6A95E2F721
:10015000822B81BB089521B381E090E002C0880F1B
:10016000991F6A95E2F78095822381BB08958430B8
:1001700008F072C0683008F06FC0423008F06CC000
:10018000813001F130F08230B1F1833009F44CC09C
:100190000895413059F42BB381E090E002C0880FFC
:1001A000991F6A95E2F7822B8BBB08952BB381E0F0
:1001B00090E002C0880F991F6A95E2F7809582232C
:1001C0008BBB0895413059F428B381E090E002C020
:1001D000880F991F6A95E2F7822B88BB089528B390
:1001E00081E090E002C0880F991F6A95E2F7809540
:1001F000822388BB0895413059F425B381E090E013
:1002000002C0880F991F6A95E2F7822B85BB08957B
:1002100025B381E090E002C0880F991F6A95E2F74C
:100220008095822385BB0895413059F422B381E043
:1002300090E002C0880F991F6A95E2F7822B82BB7B
:10024000089522B381E090E002C0880F991F6A955B
:10025000E2F78095822382BB0895843008F04EC077
:10026000683008F04BC04115510509F447C0813092
:10027000B1F028F0823019F1833089F1089589B303
:1002800090E002C0959587956A95E2F780FF04C0DB
:1002900081E0FA0180830895FA011082089586B3FF
:1002A00090E002C0959587956A95E2F780FF04C0BB
:1002B00081E0FA0180830895FA011082089583B3E2
:1002C00090E002C0959587956A95E2F780FF04C09B
:1002D00081E0FA0180830895FA011082089580B3C5
:1002E00090E002C0959587956A95E2F780FF04C07B
:1002F00081E0FA0180830895FA0110820895843024
:10030000A8F5683098F5813089F028F08230C9F07E
:10031000833011F108952BB381E090E002C0880F83
:10032000991F6A95E2F7822B8BBB089528B381E071
:1003300090E002C0880F991F6A95E2F7822B88BB74
:10034000089525B381E090E002C0880F991F6A9557
:10035000E2F7822B85BB089522B381E090E002C0D2
:10036000880F991F6A95E2F7822B82BB08957F92CE
:100370008F929F92AF92BF92CF92DF92EF92FF92B5
:100380000F931F93CF93DF93CDB7DEB769970FB667
:10039000F894DEBF0FBECDBF2FEFFC01208320E11C
:1003A000E0E6F0E0DE01119601900D922A95E1F76A
:1003B000198A35E03A8B26E02B8B47E04C8B43E0E3
:1003C0004D8B44E04E8B3F8B288F009709F05FC028
:1003D00065C0E1E1F0E0EC0FFD1FE10FF11D41E030
:1003E000608181E00E94B7001F5F01C010E01430FF
:1003F00080F3A92CB12CE1E1F0E0EC0FFD1FEA0D38
:10040000FB1D808040E0682D81E00E94B70010E075
:1004100032C0C12ED12CE5E1F0E0EC0FFD1FEC0D58
:10042000FD1D0081AE01475E5F4F602F82E00E949C
:100430002D01898D81111EC0CC0CDD1CCC0CDD1C66
:1004400081E090E08C0F9D1FC80ED91EF601EA0DC9
:10045000FB1D8081F701808307C0AE01475E5F4FBF
:10046000602F82E00E942D01898D8823B1F37724CB
:10047000739403C01F5F143060F241E0682D81E087
:100480000E94B700F1E07F1649F0939403C07C010D
:10049000712C912C83E0891508F0A8CF69960FB6CE
:1004A000F894DEBF0FBECDBFDF91CF911F910F91AA
:1004B000FF90EF90DF90CF90BF90AF909F908F9084
:1004C0007F900895CF93C82F80FF06C041E064E07D
:1004D00080E00E94B70005C040E064E080E00E9438
:1004E000B700C1FF06C041E065E080E00E94B700B0
:1004F00005C040E065E080E00E94B700C2FF06C092
:1005000041E066E080E00E94B70005C040E066E0A0
:1005100080E00E94B700C3FF06C041E067E080E0D2
:100520000E94B70005C040E067E080E00E94B7008D
:10053000CF91089541E064E080E00E94410041E0F5
:1005400065E080E00E94410041E066E080E00E94BA
:10055000410041E067E080E00E94410041E061E04D
:1005600081E00E94410041E062E081E00E944100A0
:1005700041E063E081E00E9441000895CF93C82FDD
:1005800040E061E081E00E94B70040E062E081E08D
:100590000E94B7008C2F82958F700E94620241E00A
:1005A00063E081E00E94B7008FE99FE00197F1F7D7
:1005B00000C0000040E063E081E00E94B7008C2FA3
:1005C0000E94620241E063E081E00E94B7008FE98F
:1005D0009FE00197F1F700C0000040E063E081E098
:1005E0000E94B700CF9108952FE785EB91E021504D
:1005F00080409040E1F700C0000040E061E081E011
:100600000E94B70040E062E081E00E94B70082E013
:100610000E94620241E063E081E00E94B7008FE93E
:100620009FE00197F1F700C0000040E063E081E047
:100630000E94B70088E20E94BE0290EF9A95F1F7FF
:100640008FE00E94BE0220EF2A95F1F781E00E9420
:10065000BE028FE39FE10197F1F700C0000086E042
:100660000E94BE020895CF93C82F41E061E081E06F
:100670000E94B70040E062E081E00E94B7008C2F4A
:1006800082958F700E94620241E063E081E00E94E7
:10069000B7008FE99FE00197F1F700C0000040E04C
:1006A00063E081E00E94B7008C2F0E94620241E06B
:1006B00063E081E00E94B7008FE99FE00197F1F7C6
:1006C00000C0000040E063E081E00E94B700CF91ED
:1006D0000895CF93DF931F92CDB7DEB70E949A02A1
:1006E0000E94F40241E060E081E00E94410041E0AC
:1006F00065E081E00E94410041E066E081E00E9407
:10070000410041E067E081E00E94410040E063E099
:1007100082E00E94410040E064E082E00E944100EB
:1007200040E065E082E00E94410040E066E082E057
:100730000E94410063E082E00E947F0164E082E069
:100740000E947F0165E082E00E947F0166E082E016
:100750000E947F01CE0101960E94B70189818F3FDF
:0C076000C9F30E943303F6CFF894FFCFDA
:10076C003132334134353642373839432A30234419
:00000001FF
