S0120000536572766F5F546573742E7372656304
S11300000C942A000C9447000C9447000C9447006D
S11300100C9447000C9447000C94E0030C94A80340
S11300200C9447000C946E030C9435030C94FA0260
S11300300C9447000C9447000C9447000C94470020
S11300400C9447000C9447000C9447000C94470010
S11300500C94470011241FBECFE5D8E0DEBFCDBF0E
S113006010E0A0E6B0E0E6EDF8E002C005900D92E5
S1130070A236B107D9F720E0A2E6B0E001C01D9294
S1130080AA37B207E1F70E94A8020C9469040C9401
S11300900000843008F072C0683008F06FC042304D
S11300A008F06CC0813001F130F08230B1F183305E
S11300B009F44CC00895413059F42AB381E090E02A
S11300C002C0880F991F6A95E2F7822B8ABB0895B4
S11300D02AB381E090E002C0880F991F6A95E2F785
S11300E0809582238ABB0895413059F427B381E077
S11300F090E002C0880F991F6A95E2F7822B87BBB4
S1130100089527B381E090E002C0880F991F6A9593
S1130110E2F78095822387BB0895413059F424B3D4
S113012081E090E002C0880F991F6A95E2F7822B64
S113013084BB089524B381E090E002C0880F991F26
S11301406A95E2F78095822384BB0895413059F47F
S113015021B381E090E002C0880F991F6A95E2F70D
S1130160822B81BB089521B381E090E002C0880F07
S1130170991F6A95E2F78095822381BB08958430A4
S113018008F072C0683008F06FC0423008F06CC0EC
S1130190813001F130F08230B1F1833009F44CC088
S11301A00895413059F42BB381E090E002C0880FE8
S11301B0991F6A95E2F7822B8BBB08952BB381E0DC
S11301C090E002C0880F991F6A95E2F78095822318
S11301D08BBB0895413059F428B381E090E002C00C
S11301E0880F991F6A95E2F7822B88BB089528B37C
S11301F081E090E002C0880F991F6A95E2F780952C
S1130200822388BB0895413059F425B381E090E0FE
S113021002C0880F991F6A95E2F7822B85BB089567
S113022025B381E090E002C0880F991F6A95E2F738
S11302308095822385BB0895413059F422B381E02F
S113024090E002C0880F991F6A95E2F7822B82BB67
S1130250089522B381E090E002C0880F991F6A9547
S1130260E2F78095822382BB0895CF93C82F80FF45
S113027006C041E064E080E00E94BF0005C040E0A9
S113028064E080E00E94BF00C1FF06C041E065E079
S113029080E00E94BF0005C040E065E080E00E946D
S11302A0BF00C2FF06C041E066E080E00E94BF00DC
S11302B005C040E066E080E00E94BF00C3FF06C0C6
S11302C041E067E080E00E94BF0005C040E067E0D5
S11302D080E00E94BF00CF910895CF93C82F40E0E3
S11302E061E081E00E94BF0040E062E081E00E94A2
S11302F0BF008C2F82958F700E94350141E063E02E
S113030081E00E94BF008FE99FE00197F1F700C0F0
S1130310000040E063E081E00E94BF008C2F0E9457
S1130320350141E063E081E00E94BF008FE99FE076
S11303300197F1F700C0000040E063E081E00E9413
S1130340BF00CF9108952FE785EB91E021508040C5
S11303509040E1F700C0000040E061E081E00E94CD
S1130360BF0040E062E081E00E94BF0082E00E94A2
S1130370350141E063E081E00E94BF008FE99FE026
S11303800197F1F700C0000040E063E081E00E94C3
S1130390BF0088E20E946D0190EF9A95F1F78CE01E
S11303A00E946D0120EF2A95F1F781E00E946D0112
S11303B08FE39FE10197F1F700C0000086E00E94FF
S11303C06D018FE39FE10197F1F700C000000895EC
S11303D0CF93C82F41E061E081E00E94BF0040E07C
S11303E062E081E00E94BF008C2F82958F700E9492
S11303F0350141E063E081E00E94BF008FE99FE0A6
S11304000197F1F700C0000040E063E081E00E9442
S1130410BF008C2F0E94350141E063E081E00E941F
S1130420BF008FE99FE00197F1F700C0000040E0B2
S113043063E081E00E94BF00CF91089541E064E051
S113044080E00E94490041E065E080E00E944900AC
S113045041E066E080E00E94490041E067E080E01E
S11304600E94490041E061E081E00E94490041E0CE
S113047062E081E00E94490041E063E081E00E9483
S11304804900089581E00E946D018FE39FE1019787
S1130490F1F700C000000895CF92DF92EF92FF922F
S11304A00F931F938B019C01672B682B692B49F5D4
S11304B080E30E94E80145C0DC01CB01880F991F4D
S11304C0AA1FBB1F6C017D01CC0CDD1CEE1CFF1CA4
S11304D0CC0CDD1CEE1CFF1CC80ED91EEA1EFB1E34
S11304E0C901B8012AE030E040E050E00E9447042E
S11304F06C0D7D1D8E1D9F1D022F132F242F352F54
S113050004C061E070E080E090E001151105210570
S1130510310591F62AE030E040E050E00E944704C3
S1130520E22EF32E042F152F80E3860F0E94E8019C
S11305306E2D7F2D802F912F6130710581059105DE
S113054049F71F910F91FF90EF90DF90CF9008959E
S11305500E941E020E94A301C2EE18C08C2F0E94AA
S1130560E5026C2F0C2E000C770B665A7F4F072E7A
S1130570000C880B990B0E944C028FE39CE90197B5
S1130580F1F700C000000E944202CF5FCF3134F384
S1130590CEE118C08C2F0E94E5026C2F0C2E000CAB
S11305A0770B665A7F4F072E000C880B990B0E941D
S11305B04C028FE39CE90197F1F700C000000E9410
S11305C04202C150C23E34F7C7CFCF93C82F41E097
S11305D067E083E00E9449000E942E048C2FCC0F18
S11305E0990B815A9F4F880F0E9445040E943B0437
S11305F0CF9108951F920F920FB60F9211242F934B
S11306003F934F935F936F937F938F939F93AF9396
S1130610BF93EF93FF9380916C0090916D000196CE
S113062090936D0080936C00813D934069F480E762
S113063082BF10926D0010926C00E0917800F091EE
S11306407900309709F00995FF91EF91BF91AF912F
S11306509F918F917F916F915F914F913F912F91D6
S11306600F900FBE0F901F9018951F920F920FB608
S11306700F9211242F933F934F935F936F937F9324
S11306808F939F93AF93BF93EF93FF9380916A00EF
S113069090916B00019690936B0080936A00883E62
S11306A0934059F410926B0010926A00E091760026
S11306B0F0917700309709F00995FF91EF91BF9180
S11306C0AF919F918F917F916F915F914F913F91E6
S11306D02F910F900FBE0F901F9018951F920F929D
S11306E00FB60F9211242F933F934F935F936F9301
S11306F07F938F939F93AF93BF93EF93FF938091D7
S11307006800909169000196909369008093680055
S1130710049769F480E782BF109269001092680020
S1130720E0917400F0917500309709F00995FF91FC
S1130730EF91BF91AF919F918F917F916F915F9155
S11307404F913F912F910F900FBE0F901F901895CE
S11307501F920F920FB60F9211242F933F934F9332
S11307605F936F937F938F939F93AF93BF93EF9315
S1130770FF938091660090916700019690936700C3
S1130780809366000A9759F41092670010926600ED
S1130790E0917200F0917300309709F00995FF9190
S11307A0EF91BF91AF919F918F917F916F915F91E5
S11307B04F913F912F910F900FBE0F901F9018955E
S11307C01F920F920FB60F9211242F933F938F9382
S11307D09F9386B597B590936500809364002091AC
S11307E060002130A1F42091620030916300821BEB
S11307F0930B880F991F880F991F90936F00809314
S11308006E008EB58F7B8EBD1092600016C02111D4
S113081014C02091620030916300821B930B880FF7
S1130820991F880F991F90937100809370008EB563
S113083080648EBD81E0809360008091640090911B
S1130840650090936300809362009F918F913F9124
S11308502F910F900FBE0F901F90189585B588604B
S113086085BD85B5806485BD85B58F7E85BD85B51F
S1130870806285BD089585B58E7F85BD85B58D7FE4
S113088085BD85B5846085BD089583BD0895A1E2C5
S11308901A2EAA1BBB1BFD010DC0AA1FBB1FEE1FF6
S11308A0FF1FA217B307E407F50720F0A21BB30B41
S11308B0E40BF50B661F771F881F991F1A9469F7BD
S11308C060957095809590959B01AC01BD01CF0119
S10908D00895F894FFCF27
S10508D601001B
S9030000FC
