:100000000C942A000C943F000C943F000C943F0089
:100010000C943F000C943F000C943F000C943F0064
:100020000C943F000C943F000C943F000C943F0054
:100030000C943F000C943F000C943F000C943F0044
:100040000C943F000C943F000C943F000C943F0034
:100050000C943F0011241FBECFE5D8E0DEBFCDBF1A
:1000600010E0A0E6B0E0EEE4F5E002C005900D92ED
:10007000AC36B107D9F70E94D5010C94A5020C94B7
:100080000000CF93DF930097E9F0FC01208124303A
:10009000C8F461816830B0F43281323098F4EC01F8
:1000A00041E0822F0E949F008A81811106C041E0B9
:1000B000698188810E94150105C040E069818881BD
:1000C0000E941501DF91CF910895CF93DF930097A0
:1000D000E9F0FC0120812430C8F461816830B0F47B
:1000E0003281323098F4EC0141E0822F0E949F006F
:1000F0008A81811106C040E0698188810E941501D2
:1001000005C041E0698188810E941501DF91CF918E
:100110000895CF93DF93009779F0EC010E9441009E
:100120002FEF86E791E0215080409040E1F700C03A
:100130000000CE010E946500DF91CF9108958430C8
:1001400008F072C0683008F06FC0423008F06CC030
:10015000813001F130F08230B1F1833009F44CC0CC
:100160000895413059F42AB381E090E002C0880F2D
:10017000991F6A95E2F7822B8ABB08952AB381E022
:1001800090E002C0880F991F6A95E2F7809582235C
:100190008ABB0895413059F427B381E090E002C052
:1001A000880F991F6A95E2F7822B87BB089527B3C2
:1001B00081E090E002C0880F991F6A95E2F7809570
:1001C000822387BB0895413059F424B381E090E045
:1001D00002C0880F991F6A95E2F7822B84BB0895AD
:1001E00024B381E090E002C0880F991F6A95E2F77E
:1001F0008095822384BB0895413059F421B381E076
:1002000090E002C0880F991F6A95E2F7822B81BBAC
:10021000089521B381E090E002C0880F991F6A958C
:10022000E2F78095822381BB0895843008F072C084
:10023000683008F06FC0423008F06CC0813001F1C6
:1002400030F08230B1F1833009F44CC00895413070
:1002500059F42BB381E090E002C0880F991F6A9592
:10026000E2F7822B8BBB08952BB381E090E002C0B4
:10027000880F991F6A95E2F7809582238BBB0895BA
:10028000413059F428B381E090E002C0880F991FF3
:100290006A95E2F7822B88BB089528B381E090E04D
:1002A00002C0880F991F6A95E2F78095822388BB68
:1002B0000895413059F425B381E090E002C0880FE1
:1002C000991F6A95E2F7822B85BB089525B381E0DB
:1002D00090E002C0880F991F6A95E2F7809582230B
:1002E00085BB0895413059F422B381E090E002C00B
:1002F000880F991F6A95E2F7822B82BB089522B37B
:1003000081E090E002C0880F991F6A95E2F780951E
:10031000822382BB0895CF93DF93FC01892BE9F000
:1003200080818430D0F461816830B8F49281923059
:10033000A0F4EF01911109C041E00E949F0041E04B
:10034000698188810E94150108C041E00E949F00D8
:1003500040E0698188810E941501DF91CF91089565
:10036000CF93DF93FC01892BE9F080818430D0F4B6
:1003700061816830B8F492819230A0F4EF0191115C
:1003800009C041E00E949F0040E0698188810E948D
:10039000150108C041E00E949F0041E06981888109
:1003A0000E941501DF91CF910895CF93DF931F92A3
:1003B000CDB7DEB740E060E083E00E949F0041E0FF
:1003C00061E083E00E949F0041E063E080E00E94E2
:1003D0009F0041E061E081E00E949F0041E062E017
:1003E00081E00E949F0041E063E081E00E949F0065
:1003F00041E064E080E00E949F0041E065E080E031
:100400000E949F0041E066E080E00E949F0041E082
:1004100067E080E00E949F000E948F02CE0101965B
:100420000E949D0289818334C9F128F4813451F0FE
:100430008234F1F0F3CF843409F446C0883509F4EE
:1004400069C0ECCF80E690E00E94890086E690E0EB
:100450000E948B012FEF83EC99E021508040904067
:10046000E1F700C0000086E690E00E94B001D6CF20
:1004700080E690E00E94890089E690E00E948B016E
:100480002FEF83EC99E0215080409040E1F700C0CD
:10049000000089E690E00E94B001C0CF80E690E0C5
:1004A0000E94890083E690E00E948B012FEF83EC8D
:1004B00099E0215080409040E1F700C0000083E6C1
:1004C00090E00E94B001AACF80E690E00E948900EF
:1004D00089E690E00E948B0186E690E00E948B0105
:1004E00083E690E00E948B012FEF81EE94E0215093
:1004F00080409040E1F700C0000089E690E00E9453
:10050000B00186E690E00E94B00183E690E00E9490
:10051000B00184CF80E690E00E9489007FCF8AB14D
:100520008B7F8AB986E880BD87E689B98AB1886001
:100530008AB98AB180618AB90895009729F05F9BD2
:0E054000FECF2CB1FC0120830895F894FFCF6C
:0C054E000003000303000207000202008B
:00000001FF
