:100000000C942A000C9434000C9434000C943400AA
:100010000C9434000C9434000C9434000C94340090
:100020000C9434000C9434000C9434000C94340080
:100030000C9434000C9434000C9434000C94340070
:100040000C9434000C9434000C9434000C94340060
:100050000C94340011241FBECFE5D8E0DEBFCDBF25
:100060000E94DA020C9479030C94000087B180643A
:1000700087B987B18F7787B987B18F7D87B986B107
:100080008F7D86B986B1877F86B986B1816086B952
:1000900086B1826086B986B1846086B986B180688F
:1000A00086B908958032B0F46115710599F097B161
:1000B000907E97B997B1892B87B986B1806486B94C
:1000C000349BFECF86B1806186B984B195B1FB01C6
:1000D0009183808308950F931F93CF93DF9300D074
:1000E000CDB7DEB78B01BE016F5F7F4F0E9452001C
:1000F00029813A81A8E8B3E10E946A03DC01CB01BF
:10010000072E7AE0B695A795979587957A95D1F7BA
:10011000702DF801918380830F900F90DF91CF9124
:100120001F910F910895843008F072C0683008F074
:100130006FC0423008F06CC0813001F130F0823085
:10014000B1F1833009F44CC00895413059F42AB319
:1001500081E090E002C0880F991F6A95E2F7822B38
:100160008ABB08952AB381E090E002C0880F991FEE
:100170006A95E2F7809582238ABB0895413059F44D
:1001800027B381E090E002C0880F991F6A95E2F7DB
:10019000822B87BB089527B381E090E002C0880FCF
:1001A000991F6A95E2F78095822387BB08954130B5
:1001B00059F424B381E090E002C0880F991F6A953A
:1001C000E2F7822B84BB089524B381E090E002C063
:1001D000880F991F6A95E2F78095822384BB089562
:1001E000413059F421B381E090E002C0880F991F9B
:1001F0006A95E2F7822B81BB089521B381E090E0FC
:1002000002C0880F991F6A95E2F78095822381BB0F
:100210000895843008F072C0683008F06FC0423032
:1002200008F06CC0813001F130F08230B1F18330E0
:1002300009F44CC00895413059F42BB381E090E0AB
:1002400002C0880F991F6A95E2F7822B8BBB089535
:100250002BB381E090E002C0880F991F6A95E2F706
:10026000809582238BBB0895413059F428B381E0F7
:1002700090E002C0880F991F6A95E2F7822B88BB35
:10028000089528B381E090E002C0880F991F6A9515
:10029000E2F78095822388BB0895413059F425B355
:1002A00081E090E002C0880F991F6A95E2F7822BE7
:1002B00085BB089525B381E090E002C0880F991FA7
:1002C0006A95E2F78095822385BB0895413059F401
:1002D00022B381E090E002C0880F991F6A95E2F78F
:1002E000822B82BB089522B381E090E002C0880F88
:1002F000991F6A95E2F78095822382BB0895CF9378
:10030000C82F80FF06C041E064E080E00E94090140
:1003100005C040E064E080E00E940901C1FF06C022
:1003200041E065E080E00E94090105C040E065E031
:1003300080E00E940901C2FF06C041E066E080E063
:100340000E94090105C040E066E080E00E940901CA
:10035000C3FF06C041E067E080E00E94090105C0DC
:1003600040E067E080E00E940901CF910895CF93BB
:10037000C82F40E061E081E00E94090140E062E0B6
:1003800081E00E9409018C2F82958F700E947F016D
:1003900041E063E081E00E9409018FE99FE001975D
:1003A000F1F700C0000040E063E081E00E94090135
:1003B0008C2F0E947F0141E063E081E00E940901EF
:1003C0008FE99FE00197F1F700C0000040E063E093
:1003D00081E00E940901CF9108952FE785EB91E01C
:1003E000215080409040E1F700C0000040E061E013
:1003F00081E00E94090140E062E081E00E94090181
:1004000082E00E947F0141E063E081E00E940901F7
:100410008FE99FE00197F1F700C0000040E063E042
:1004200081E00E94090188E20E94B70190EF9A954D
:10043000F1F78FE00E94B70120EF2A95F1F781E0F4
:100440000E94B7018FE39FE10197F1F700C0000020
:1004500086E00E94B7010895CF93C82F41E061E084
:1004600081E00E94090140E062E081E00E94090110
:100470008C2F82958F700E947F0141E063E081E0C4
:100480000E9409018FE99FE00197F1F700C0000089
:1004900040E063E081E00E9409018C2F0E947F010F
:1004A00041E063E081E00E9409018FE99FE001974C
:1004B000F1F700C0000040E063E081E00E94090124
:1004C000CF910895CF92DF92EF92FF920F931F93F7
:1004D0008B019C01672B682B692B49F580E30E94F7
:1004E0002C0245C0DC01CB01880F991FAA1FBB1F3E
:1004F0006C017D01CC0CDD1CEE1CFF1CCC0CDD1C4A
:10050000EE1CFF1CC80ED91EEA1EFB1EC901B80155
:100510002AE030E040E050E00E9448036C0D7D1D71
:100520008E1D9F1D022F132F242F352F04C061E035
:1005300070E080E090E0011511052105310591F68C
:100540002AE030E040E050E00E944803E22EF32E23
:10055000042F152F80E3860F0E942C026E2D7F2D15
:10056000802F912F613071058105910549F71F9109
:100570000F91FF90EF90DF90CF90089581E00E945F
:10058000B7018FE39FE10197F1F700C000000895E4
:10059000813039F4603168F480E8860F0E94B70139
:1005A0000895823031F4603120F480EC860F0E948F
:1005B000B7010895CF93DF9300D0CDB7DEB741E008
:1005C00064E080E00E94930041E065E080E00E94EA
:1005D000930041E066E080E00E94930041E067E024
:1005E00080E00E94930041E061E081E00E9493007E
:1005F00041E062E081E00E94930041E063E081E03D
:100600000E94930040E061E080E00E94930041E09E
:1006100063E080E00E9493000E9436000E94ED019A
:1006200000E010E0BE016F5F7F4F81E00E946B0031
:100630002FE785EB91E0215080409040E1F700C02A
:10064000000089819A810817190761F30E94BE0290
:1006500066E081E00E94C80269817A8180E090E0D2
:100660000E94620241E063E080E00E9409012FEFF6
:1006700086E791E0215080409040E1F700C0000003
:1006800040E063E080E00E94090109811A81CACF3D
:10069000A1E21A2EAA1BBB1BFD010DC0AA1FBB1F86
:1006A000EE1FFF1FA217B307E407F50720F0A21BF8
:1006B000B30BE40BF50B661F771F881F991F1A9465
:1006C00069F760957095809590959B01AC01BD018F
:1006D000CF010895A29FB001B39FC001A39F700DE9
:1006E000811D1124911DB29F700D811D1124911D3A
:0606F0000895F894FFCF0D
:00000001FF
