:100000000C942A000C9434000C9434000C943400AA
:100010000C9434000C9434000C9434000C94340090
:100020000C9434000C9434000C9434000C94340080
:100030000C9434000C9434000C9434000C94340070
:100040000C9434000C9434000C9434000C94340060
:100050000C94340011241FBECFE5D8E0DEBFCDBF25
:100060000E9422010C948E020C940000843008F04F
:1000700072C0683008F06FC0423008F06CC0813048
:1000800001F130F08230B1F1833009F44CC00895B1
:10009000413059F42AB381E090E002C0880F991FE3
:1000A0006A95E2F7822B8ABB08952AB381E090E03B
:1000B00002C0880F991F6A95E2F7809582238ABB58
:1000C0000895413059F427B381E090E002C0880FD1
:1000D000991F6A95E2F7822B87BB089527B381E0C9
:1000E00090E002C0880F991F6A95E2F780958223FD
:1000F00087BB0895413059F424B381E090E002C0F9
:10010000880F991F6A95E2F7822B84BB089524B368
:1001100081E090E002C0880F991F6A95E2F7809510
:10012000822384BB0895413059F421B381E090E0EB
:1001300002C0880F991F6A95E2F7822B81BB089550
:1001400021B381E090E002C0880F991F6A95E2F721
:100150008095822381BB0895843008F072C0683096
:1001600008F06FC0423008F06CC0813001F130F00F
:100170008230B1F1833009F44CC00895413059F414
:100180002BB381E090E002C0880F991F6A95E2F7D7
:10019000822B8BBB08952BB381E090E002C0880FC7
:1001A000991F6A95E2F7809582238BBB08954130B1
:1001B00059F428B381E090E002C0880F991F6A9536
:1001C000E2F7822B88BB089528B381E090E002C05B
:1001D000880F991F6A95E2F78095822388BB08955E
:1001E000413059F425B381E090E002C0880F991F97
:1001F0006A95E2F7822B85BB089525B381E090E0F4
:1002000002C0880F991F6A95E2F78095822385BB0B
:100210000895413059F422B381E090E002C0880F84
:10022000991F6A95E2F7822B82BB089522B381E081
:1002300090E002C0880F991F6A95E2F780958223AB
:1002400082BB089541E061E081E00E94360041E018
:1002500062E081E00E94360041E063E081E00E94BC
:10026000360041E064E080E00E94360041E065E055
:1002700080E00E94360041E066E080E00E943600A7
:1002800041E067E080E00E94360041E063E080E00A
:100290000E94360041E067E082E00E94360084E17F
:1002A0000E94030284E10E942D0241E063E080E0AD
:1002B0000E94AC0062E080E00E944D0240E063E0FA
:1002C00080E00E94AC0041E067E082E00E94AC0068
:1002D000FFCFCF93C82F80FF06C041E064E080E0ED
:1002E0000E94AC0005C040E064E080E00E94AC00E9
:1002F000C1FF06C041E065E080E00E94AC0005C09F
:1003000040E065E080E00E94AC00C2FF06C041E032
:1003100066E080E00E94AC0005C040E066E080E05E
:100320000E94AC00C3FF06C041E067E080E00E948D
:10033000AC0005C040E067E080E00E94AC00CF91D7
:10034000089540E061E081E00E94AC0040E062E09E
:1003500081E00E94AC0040E063E081E00E94AC00DC
:1003600008950E946901089541E061E081E00E94E2
:10037000AC00089541E062E081E00E94AC00089585
:1003800040E061E081E00E94AC00089540E062E05E
:1003900081E00E94AC0008951F93CF93DF938436D1
:1003A00050F12DC0CDEC1C9FC12D1124C695C695D2
:1003B000C6958C2F0E94B1010E94BA018FE19EE484
:1003C0000197F1F700C000000E94C601CC0F9C2FDE
:1003D000990F990FC90F812F8C1B0E94B1010E94A8
:1003E000B4018FE19EE40197F1F700C000000E9484
:1003F000C001DF5F02C0182FD0E0D43698F2DF9141
:10040000CF911F910895CF93DF93D82F0E94A10120
:10041000C0E017C041E063E080E00E94AC002FE73D
:1004200088E391E0215080409040E1F700C0000057
:1004300040E063E080E00E94AC008C2F0E94CC0181
:10044000CF5F2D2F30E08C2F0C2E000C990B8217D4
:10045000930704F3DF91CF910895CF93C82F0E94A3
:10046000A10117C041E063E080E00E94AC002FE7EB
:1004700088E391E0215080409040E1F700C0000007
:1004800040E063E080E00E94AC008C2F0E94CC0131
:10049000C150CC233CF7CF9108950F931F93CF9376
:1004A000DF93843650F135C0CDEC1C9FC12D112453
:1004B000C695C695C6958C2F0E94B1010E94BA01BF
:1004C0008FE19EE40197F1F700C000000E94C60191
:1004D000CC0F9C2F990F990FC90F812F8C1B0E9455
:1004E000B1010E94B4018FE19EE40197F1F700C0D1
:1004F00000000E94C001DF5F03C0062F182FD0E06C
:100500002D2F30E044E6049FC0011124281739073D
:100510005CF2DF91CF911F910F910895F894FFCF76
:00000001FF
